:020000040800F2
:1000000000500020C12800089D260008A5260008F1
:10001000AD260008B5260008BD2600080000000037
:10002000000000000000000000000000C5260008DD
:10003000D126000800000000DD260008E92600089F
:1000400009290008092900080929000809290008C8
:1000500009290008092900080929000809290008B8
:1000600009290008092900080929000809290008A8
:100070000929000809290008092900080929000898
:100080000929000809290008092900080929000888
:100090000929000809290008092900080929000878
:1000A0000929000809290008092900080929000868
:1000B000092900080929000809290008F52600086F
:1000C000092700080929000809290008092900084A
:1000D000092900081D270008092900080929000826
:1000E0000929000809290008092900080000000062
:1000F0000000000000000000000000000000000000
:0C01000000000000000000005FF808F1A3
:1001100010B5054C237833B9044B13B10448AFF341
:1001200000800123237010BDE001002000000000CA
:10013000B8A0000808B5034B1BB103490348AFF34F
:10014000008008BD00000000E4010020B8A0000805
:10015000034613F8012B002AFBD1181A0138704707
:1001600081F0004102E000BF83F0004330B54FEA68
:1001700041044FEA430594EA050F08BF90EA020FD5
:100180001FBF54EA000C55EA020C7FEA645C7FEA68
:10019000655C00F0E2804FEA5454D4EB5555B8BF8B
:1001A0006D420CDD2C4480EA020281EA030382EAFC
:1001B000000083EA010180EA020281EA0303362D8E
:1001C00088BF30BD11F0004F4FEA01314FF4801C61
:1001D0004CEA113102D0404261EB410113F0004F73
:1001E0004FEA03334CEA133302D0524263EB43032A
:1001F00094EA050F00F0A780A4F10104D5F1200EC8
:100200000DDB02FA0EFC22FA05F2801841F1000122
:1002100003FA0EF2801843FA05F359410EE0A5F1F6
:1002200020050EF1200E012A03FA0EFC28BF4CF027
:10023000020C43FA05F3C01851EBE37101F00045DD
:1002400007D54FF0000EDCF1000C7EEB00006EEBEA
:100250000101B1F5801F1BD3B1F5001F0CD3490874
:100260005FEA30004FEA3C0C04F101044FEA4452CB
:1002700012F5800F80F09A80BCF1004F08BF5FEA52
:10028000500C50F1000041EB045141EA050130BD32
:100290005FEA4C0C404141EB0101013C28BFB1F544
:1002A000801FE9D291F0000F04BF01460020B1FA8F
:1002B00081F308BF2033A3F10B03B3F120020CDA62
:1002C0000C3208DD02F1140CC2F10C0201FA0CF040
:1002D00021FA02F10CE002F11402D8BFC2F1200CA5
:1002E00001FA02F120FA0CFCDCBF41EA0C0190405B
:1002F000E41AA2BF01EB0451294330BD6FEA0404A4
:100300001F3C1CDA0C340EDC04F11404C4F120028E
:1003100020FA04F001FA02F340EA030021FA04F3A0
:1003200045EA030130BDC4F10C04C4F1200220FAF7
:1003300002F001FA04F340EA0300294630BD21FA35
:1003400004F0294630BD94F0000F83F4801306BFFB
:1003500081F480110134013D4EE77FEA645C18BFEF
:100360007FEA655C29D094EA050F08BF90EA020F86
:1003700005D054EA000C04BF1946104630BD91EA7E
:10038000030F1EBF0021002030BD5FEA545C05D181
:100390004000494128BF41F0004130BD14F58004C0
:1003A0003CBF01F5801130BD01F0004545F0FE4134
:1003B00041F470014FF0000030BD7FEA645C1ABF69
:1003C000194610467FEA655C1CBF0B46024650EAA0
:1003D000013406BF52EA033591EA030F41F40021CC
:1003E00030BD00BF90F0000F04BF0021704730B552
:1003F0004FF4806404F132044FF000054FF0000127
:1004000050E700BF90F0000F04BF0021704730B5E7
:100410004FF4806404F1320410F0004548BF4042BC
:100420004FF000013EE700BF42004FEAE2014FEA11
:1004300031014FEA02701FBF12F07F4393F07F4FEC
:1004400081F06051704732F07F4208BF704793F0EF
:100450007F4F04BF41F40021704730B54FF4607402
:1004600001F0004521F000411CE700BF50EA010205
:1004700008BF704730B54FF000050AE050EA0102AE
:1004800008BF704730B511F0004502D5404261EB1E
:1004900041014FF4806404F132045FEA915C3FF45F
:1004A000D8AE4FF003025FEADC0C18BF03325FEAFC
:1004B000DC0C18BF033202EBDC02C2F1200300FAAD
:1004C00003FC20FA02F001FA03FE40EA0E0021FAD2
:1004D00002F11444BDE600BF70B54FF0FF0C4CF4C0
:1004E000E06C1CEA11541DBF1CEA135594EA0C0F72
:1004F00095EA0C0F00F0DEF82C4481EA030621EAAD
:100500004C5123EA4C5350EA013518BF52EA0335E7
:1005100041F4801143F4801338D0A0FB02CE4FF099
:100520000005E1FB02E506F00042E0FB03E54FF0C9
:100530000006E1FB03569CF0000F18BF4EF0010EC1
:10054000A4F1FF04B6F5007F64F5407404D25FEABD
:100550004E0E6D4146EB060642EAC62141EA555170
:100560004FEAC52040EA5E504FEACE2EB4F1FD0CB2
:1005700088BFBCF5E06F1ED8BEF1004F08BF5FEA30
:10058000500E50F1000041EB045170BD06F00046E2
:1005900046EA010140EA020081EA0301B4EB5C048F
:1005A000C2BFD4EB0C0541EA045170BD41F4801187
:1005B0004FF0000E013C00F3AB8014F1360FDEBFAC
:1005C000002001F0004170BDC4F10004203C35DA88
:1005D0000C341BDC04F11404C4F1200500FA05F30B
:1005E00020FA04F001FA05F240EA020001F00042AC
:1005F00021F0004110EBD37021FA04F642EB060122
:100600005EEA430E08BF20EAD37070BDC4F10C044B
:10061000C4F1200500FA04F320FA05F001FA04F20F
:1006200040EA020001F0004110EBD37041F10001FB
:100630005EEA430E08BF20EAD37070BDC4F1200506
:1006400000FA05F24EEA020E20FA04F301FA05F26E
:1006500043EA020321FA04F001F0004121FA04F216
:1006600020EA020000EBD3705EEA430E08BF20EAE6
:10067000D37070BD94F0000F0FD101F00046400020
:1006800041EB010111F4801F08BF013CF7D041EAA2
:10069000060195F0000F18BF704703F000465200A6
:1006A00043EB030313F4801F08BF013DF7D043EA77
:1006B0000603704794EA0C0F0CEA135518BF95EA2D
:1006C0000C0F0CD050EA410618BF52EA4306D1D1B4
:1006D00081EA030101F000414FF0000070BD50EAD3
:1006E000410606BF1046194652EA430619D094EA5D
:1006F0000C0F02D150EA013613D195EA0C0F05D147
:1007000052EA03361CBF104619460AD181EA03019A
:1007100001F0004141F0FE4141F470014FF0000052
:1007200070BD41F0FE4141F4780170BD70B54FF0ED
:10073000FF0C4CF4E06C1CEA11541DBF1CEA13556D
:1007400094EA0C0F95EA0C0F00F0A7F8A4EB05044F
:1007500081EA030E52EA03354FEA013100F0888046
:100760004FEA03334FF0805545EA131343EA12630F
:100770004FEA022245EA111545EA10654FEA0026C4
:100780000EF000419D4208BF964244F1FD0404F57D
:10079000407402D25B084FEA3202B61A65EB0305D9
:1007A0005B084FEA32024FF480104FF4002CB6EB96
:1007B000020E75EB030E22BFB61A754640EA0C0016
:1007C0005B084FEA3202B6EB020E75EB030E22BF56
:1007D000B61A754640EA5C005B084FEA3202B6EB97
:1007E000020E75EB030E22BFB61A754640EA9C0056
:1007F0005B084FEA3202B6EB020E75EB030E22BF26
:10080000B61A754640EADC0055EA060E18D04FEAE3
:10081000051545EA16754FEA06164FEAC30343EA83
:1008200052734FEAC2025FEA1C1CC0D111F4801F50
:100830000BD141EA00014FF000004FF0004CB6E749
:1008400011F4801F04BF01430020B4F1FD0C88BFE8
:10085000BCF5E06F3FF6AFAEB5EB030C04BFB6EBF3
:10086000020C5FEA500C50F1000041EB045170BDE6
:100870000EF0004E4EEA113114EB5C04C2BFD4EB13
:100880000C0541EA045170BD41F480114FF0000E97
:10089000013C90E645EA060E8DE60CEA135594EA13
:1008A0000C0F08BF95EA0C0F3FF43BAF94EA0C0F16
:1008B0000AD150EA01347FF434AF95EA0C0F7FF48B
:1008C00025AF104619462CE795EA0C0F06D152EADF
:1008D00003353FF4FDAE1046194622E750EA4106C3
:1008E00018BF52EA43067FF4C5AE50EA41047FF4D4
:1008F0000DAF52EA43057FF4EBAE12E74FF0FF3C39
:1009000006E000BF4FF0010C02E000BF4FF0010C09
:100910004DF804CD4FEA410C7FEA6C5C4FEA430C82
:1009200018BF7FEA6C5C1BD001B050EA410C0CBFD1
:1009300052EA430C91EA030F02BF90EA020F002033
:10094000704710F1000F91EA030F58BF994208BF9A
:1009500090422CBFD8176FEAE37040F00100704757
:100960004FEA410C7FEA6C5C02D150EA013C07D1AE
:100970004FEA430C7FEA6C5CD6D152EA033CD3D0F9
:100980005DF8040B704700BF8446104662468C46F3
:100990001946634600E000BF01B5FFF7B7FF002826
:1009A00048BF10F1000F01BD4DF808EDFFF7F4FF4F
:1009B0000CBF012000205DF808FB00BF4DF808EDDA
:1009C000FFF7EAFF34BF012000205DF808FB00BFFD
:1009D0004DF808EDFFF7E0FF94BF012000205DF81F
:1009E00008FB00BF4DF808EDFFF7CEFF94BF0120D4
:1009F00000205DF808FB00BF4DF808EDFFF7C4FFCD
:100A000034BF012000205DF808FB00BF4FEA410C15
:100A10007FEA6C5C02D150EA013C0AD14FEA430CF8
:100A20007FEA6C5C02D152EA033C02D14FF0000035
:100A300070474FF0010070474FEA410212F5001273
:100A400015D211D56FF47873B3EB625212D94FEA15
:100A5000C12343F0004343EA505311F0004F23FAFF
:100A600002F018BF404270474FF00000704750EA54
:100A7000013005D111F0004008BF6FF00040704711
:100A80004FF00000704700BF4A0011D212F500126B
:100A900011D20DD56FF47873B3EB62520ED44FEAD6
:100AA000C12343F0004343EA505323FA02F0704756
:100AB0004FF00000704750EA013002D14FF0FF3094
:100AC00070474FF00000704780F0004002E000BF28
:100AD00081F0004142001FBF5FEA410392EA030F29
:100AE0007FEA226C7FEA236C6AD04FEA1262D2EB73
:100AF0001363C1BFD218414048404140B8BF5B4278
:100B0000192B88BF704710F0004F40F4000020F010
:100B10007F4018BF404211F0004F41F4000121F026
:100B20007F4118BF494292EA030F3FD0A2F1010270
:100B300041FA03FC10EB0C00C3F1200301FA03F1AE
:100B400000F0004302D5494260EB4000B0F5000FD1
:100B500013D3B0F1807F06D340084FEA310102F190
:100B60000102FE2A51D2B1F1004F40EBC25008BF42
:100B700020F0010040EA03007047490040EB00000C
:100B8000013A28BFB0F5000FEDD2B0FA80FCACF10D
:100B9000080CB2EB0C0200FA0CF0AABF00EBC2503A
:100BA00052421843BCBFD0401843704792F0000F28
:100BB00081F4000106BF80F400000132013BB5E77B
:100BC0004FEA41037FEA226C18BF7FEA236C21D0F1
:100BD00092EA030F04D092F0000F08BF0846704756
:100BE00090EA010F1CBF0020704712F07F4F04D124
:100BF000400028BF40F00040704712F100723CBF37
:100C000000F50000704700F0004343F0FE4040F460
:100C1000000070477FEA226216BF08467FEA23631E
:100C20000146420206BF5FEA412390EA010F40F409
:100C3000800070474FF0000304E000BF10F0004355
:100C400048BF40425FEA000C08BF704743F096433C
:100C500001464FF000001CE050EA010208BF704757
:100C60004FF000030AE000BF50EA010208BF7047DE
:100C700011F0004302D5404261EB41015FEA010CF3
:100C800002BF84460146002043F0B64308BFA3F1EB
:100C90008053A3F50003BCFA8CF2083AA3EBC253CD
:100CA00010DB01FA02FC634400FA02FCC2F12002EC
:100CB000BCF1004F20FA02F243EB020008BF20F023
:100CC0000100704702F1200201FA02FCC2F1200289
:100CD00050EA4C0021FA02F243EB020008BF20EA7E
:100CE000DC7070474FF0FF0C1CEAD0521EBF1CEAAC
:100CF000D15392EA0C0F93EA0C0F6FD01A4480EA9A
:100D0000010C400218BF5FEA41211ED04FF0006382
:100D100043EA501043EA5111A0FB01310CF00040AE
:100D2000B1F5000F3EBF490041EAD3715B0040EAD4
:100D3000010062F17F02FD2A1DD8B3F1004F40EBA4
:100D4000C25008BF20F00100704790F0000F0CF077
:100D5000004C08BF49024CEA502040EA51207F3A3B
:100D6000C2BFD2F1FF0340EAC250704740F4000016
:100D70004FF00003013A5DDC12F1190FDCBF00F007
:100D800000407047C2F10002410021FA02F1C2F1B5
:100D9000200200FA02FC5FEA310040F1000053EA51
:100DA0004C0308BF20EADC70704792F0000F00F09F
:100DB000004C02BF400010F4000F013AF9D040EAA5
:100DC0000C0093F0000F01F0004C02BF490011F439
:100DD000000F013BF9D041EA0C018FE70CEAD15337
:100DE00092EA0C0F18BF93EA0C0F0AD030F0004CB7
:100DF00018BF31F0004CD8D180EA010000F000406B
:100E0000704790F0000F17BF90F0004F084691F028
:100E1000000F91F0004F14D092EA0C0F01D1420262
:100E20000FD193EA0C0F03D14B0218BF084608D12B
:100E300080EA010000F0004040F0FE4040F4000075
:100E4000704740F0FE4040F4400070474FF0FF0C08
:100E50001CEAD0521EBF1CEAD15392EA0C0F93EA4F
:100E60000C0F69D0A2EB030280EA010C49024FEAA1
:100E7000402037D04FF0805343EA111143EA10135A
:100E80000CF000408B4238BF5B0042F17D024FF412
:100E9000000C8B4224BF5B1A40EA0C00B3EB510FED
:100EA00024BFA3EB510340EA5C00B3EB910F24BFD6
:100EB000A3EB910340EA9C00B3EBD10F24BFA3EB5B
:100EC000D10340EADC001B0118BF5FEA1C1CE0D123
:100ED000FD2A3FF650AF8B4240EBC25008BF20F0D6
:100EE000010070470CF0004C4CEA50207F32C2BF2A
:100EF000D2F1FF0340EAC250704740F400004FF0C7
:100F00000003013A37E792F0000F00F0004C02BFF7
:100F1000400010F4000F013AF9D040EA0C0093F0C1
:100F2000000F01F0004C02BF490011F4000F013B1B
:100F3000F9D041EA0C0195E70CEAD15392EA0C0F83
:100F400008D142027FF47DAF93EA0C0F7FF470AFBB
:100F5000084676E793EA0C0F04D14B023FF44CAFFE
:100F600008466EE730F0004C18BF31F0004CCAD193
:100F700030F000427FF45CAF31F000437FF43CAFCF
:100F80005FE700BF4FF0FF3C06E000BF4FF0010CF1
:100F900002E000BF4FF0010C4DF804CD4FEA4002D3
:100FA0004FEA41037FEA226C18BF7FEA236C11D01D
:100FB00001B052EA530C18BF90EA010F58BFB2EBD0
:100FC000030088BFC81738BF6FEAE17018BF40F050
:100FD000010070477FEA226C02D15FEA402C05D104
:100FE0007FEA236CE4D15FEA412CE1D05DF8040B89
:100FF000704700BF844608466146FFE70FB5FFF71C
:10100000C9FF002848BF10F1000F0FBD4DF808EDD3
:10101000FFF7F4FF0CBF012000205DF808FB00BFC4
:101020004DF808EDFFF7EAFF34BF012000205DF81E
:1010300008FB00BF4DF808EDFFF7E0FF94BF01206B
:1010400000205DF808FB00BF4DF808EDFFF7D2FF68
:1010500094BF012000205DF808FB00BF4DF808EDAB
:10106000FFF7C8FF34BF012000205DF808FB00BF78
:1010700042000ED2B2F1FE4F0BD34FF09E03B3EB02
:10108000126209D44FEA002343F0004323FA02F02E
:1010900070474FF00000704712F1610F01D142021A
:1010A00002D14FF0FF3070474FF00000704700BF93
:1010B00080B582B000AF7860391D4FF0FF33012258
:1010C000034805F045FB7B6818460837BD4680BDE0
:1010D0005002002090B591B000AF786039603B6855
:1010E00049F63F4293420BD8034B00221A70034B40
:1010F00000221A70D0E200BF98020020990200205E
:101100003868FFF797FD0246964B1B681946104654
:10111000FFF7DEFC034694491846FFF7E3FD03465C
:101120001A46904B1B6819461046FFF7D3FC03463E
:101130001A468C4B1A607868FFF77CFD02468B4B91
:101140001B6819461046FFF7C3FC0346864918463C
:10115000FFF7C8FD03461A46844B1B681946104624
:10116000FFF7B8FC03461A46804B1A603868FFF751
:1011700061FD02467E4B1B6819461046FFF7A8FC2E
:1011800003464FF07A511846FFF7ACFD03461A4666
:10119000774B1B6819461046FFF79CFC03461A461E
:1011A000734B1A603868FFF745FD0246714B1B68A8
:1011B00019461046FFF78CFC03466F491846FFF7A7
:1011C00091FD03461A466B4B1B6819461046FFF704
:1011D00081FC03461A46674B1A60654B1B68654ADB
:1011E000126811461846FFF773FC03461A46634B14
:1011F0001A607868FFF71EFD0246614B1B681946AE
:101200001046FFF765FC03464FF07A511846FFF78A
:1012100069FD03461A465A4B1B6819461046FFF7EC
:1012200059FC03461A46564B1A607868FFF702FDD0
:101230000246544B1B6819461046FFF749FC03460B
:101240004D491846FFF74EFD03461A464D4B1B68A5
:1012500019461046FFF73EFC03461A46494B1A60F2
:10126000474B1B68474A126811461846FFF730FC87
:1012700003461A46444B1A60404B1B6823F0004358
:10128000424A126811461846FFF722FC03464049BD
:101290001846FFF727FD03461A463C4B1B681946C4
:1012A0001046FFF717FC03461A46384B1A60364BB8
:1012B0001B6823F00043374A126811461846FFF7AF
:1012C00007FC034632491846FFF70CFD03461A4651
:1012D000304B1B6819461046FFF7FCFB03461A46C5
:1012E0002C4B1A602C4B1B88002B05D02A4B1B88DB
:1012F000013B9AB2284B1A80284B1B8801339AB2C3
:10130000264B1A80214B1B684FF07C511846FFF783
:10131000E9FC03464FF08241184608F09DFE386311
:101320001F4B1B681F4A126811461846FFF778FECC
:101330000346002B00F0EE801A4B1B680F4A126820
:1013400011461846FFF78AFE0346002B00F0E280A4
:10135000144B1B681946386BFFF76CFE0346002BD5
:1013600022E000BF680400200AD7233C6C04002060
:1013700070040020740400200AD7A33C78040020E5
:101380007C0400208004002084040020040000204D
:10139000CDCCCC3D08000020880400208A04002029
:1013A0008C0400209004002000F0B480824B1B8845
:1013B000002B40F0AF80804B11221A807F4B1B889E
:1013C000FB857E4B00221A807D4B1B78052B0BD8AA
:1013D0007B4B1B785A1CD1B2794A11701946794A55
:1013E000FB8D22F8113014E00523FB630BE0FB6B4F
:1013F000013B744A32F81310724AFB6B22F8131047
:10140000FB6B013BFB63FB6B002BF0DC6D4AFB8D40
:1014100013806B4B1B78012B7CD90023BB6300230B
:101420007B630AE0674A7B6B32F813301A46BB6B6A
:101430001344BB637B6B01337B63614B1B781A46A0
:101440007B6B9342EEDBB86BFFF7F4FB04465C4B1F
:101450001B781846FFF7EEFB034619462046FFF7B8
:10146000F5FC0346BB62B96A5748FFF7EFFC034639
:1014700056491846FFF736FC03467B62544B1B68FF
:101480004FF07E511846FFF7D5FD0346002B03D0E1
:101490004F4A7B6A136016E04D4B1B681946786A09
:1014A000FFF716FB03464B491846FFF71BFC0346A4
:1014B0001A46474B1B6819461046FFF70BFB0346BD
:1014C0001A46434B1A60424B1B6843491846FFF7C4
:1014D000A7FD0346002B02D03D4B3F4A1A603C4B10
:1014E0001B683E491846FFF7B9FD0346002B02D0A2
:1014F000374B3A4A1A60364B1B684FF07C511846FE
:10150000FFF7E8FA03461846FFF7B2FD0346DAB2E2
:10151000334B1A70334B1B68334A1360334B1B68D1
:10152000304A1360324B1B684FF07E51184608F06A
:1015300093FD38622F4B1B684FF07E51184608F020
:101540008BFDF8612C4B1B684FF07E51184608F05C
:1015500083FDB861294B1B684FF07E51184608F097
:101560007BFD7861396AB869FFF770FC03461C4659
:10157000F9697869FFF76AFC034619462046FFF7C8
:1015800065FC03463B611E493869FFF7ABFB034628
:1015900019461C48FFF79CFA0346FB601A4B1B6870
:1015A0004FF07E511846FFF745FD0346002B2DD026
:1015B000154AFB68136040E0880400208A0400207C
:1015C000940400209804002000004842000070426B
:1015D000A4040020CDCC4C3E0000F04100005C4350
:1015E00098020020900400208C0400207804002041
:1015F0006C04002068040020080000200400002083
:101600000000C8410000DC42A8040020244B1B68F5
:101610001946F868FFF75CFA034622491846FFF7B7
:1016200061FB03461A461E4B1B6819461046FFF71E
:1016300051FA03461A461A4B1A60194B1B681A498D
:101640001846FFF7EDFC0346002B02D0144B164A58
:101650001A60134B1B6815491846FFF7FFFC034639
:10166000002B02D00E4B114A1A600D4B1B684FF035
:101670007C511846FFF72EFA03461846FFF7F8FC90
:101680000346DAB20A4B1A700A4B1B680A4A136007
:101690000A4B1B680A4A13604437BD4690BD00BF21
:1016A000A80400209A99193E00008C420000C8420C
:1016B00099020020780400201C0300200400002070
:1016C0000000002090B58FB002AF7860614B1B68BE
:1016D0004FF07E511846FFF7C1FC0346002B07D0A0
:1016E0005C4B1B685C491846FFF7FCFA034600E0B8
:1016F0005A4BFB615A4B1B68F9691846FFF7A6FB6A
:101700000346FB624FF07E51F86AFFF7A7FC0346E1
:10171000002B02D04FF07E53FB625249F86AFFF76C
:101720007FFC0346002B01D04E4BFB623623FB7639
:10173000FB7E1846FFF782FA04464B49F86AFFF72A
:10174000D1FA034619462046FFF7C2F90346184668
:10175000FFF78EFC0346BB76444B1B781946444A80
:10176000BB7E53540023BB6210E0BB6ADBB2012294
:101770002C21184600F0FEFCBB6ADBB201223F219F
:10178000184600F0F7FCBB6A0833BB62BB6A7F2BCC
:10179000EBDD2C237B6210E07B6ADBB20122194671
:1017A000002000F0E7FC7B6ADBB2012219467F20B3
:1017B00000F0E0FC7B6A04337B627B6A3F2BEBDD4D
:1017C00001233B6232E03B6A013B7B61274B1B7884
:1017D0001A463B6A1344013B5A4203F07F0302F06E
:1017E0007F0258BF5342224AD35C3B613B6AFB6095
:1017F0001E4B1B781A463B6A13445A4203F07F0380
:1018000002F07F0258BF5342194AD35CBB607B6928
:10181000D8B23B69D9B2FB68DAB2BB68DBB201244B
:10182000009400F0C9FD3B6A01333B623B6A7F2BA9
:10183000C9DD0E4B1B7801335A4203F07F0302F0DF
:101840007F0258BF5342DAB2084B1A7000BF3437D8
:10185000BD4690BD000000200000404000007A44DA
:101860001C030020000080BF000010419A020020ED
:101870009C02002080B586B002AF01F047F800F06E
:10188000E1F800F073F900F019F900F045F900F003
:10189000C7FB594BDB69584A43F08053D361564B21
:1018A000DB6903F080537B607B68544B5B6803F01B
:1018B0000203022B05D1514B1B68504A43F0080329
:1018C000136000BF01214E4801F0F8FB0346012BD5
:1018D000F8D04C4806F032FB4B494C4800F0AAF9CE
:1018E0004A4800F01EFA0321484800F02BFA0F2363
:1018F00001220221454800F09BFA4549434800F087
:1019000047FA4349414800F06BFA424806F016FB9B
:101910003E4800F0E8FA3D4B5B68FB603B4BD3F878
:101920008430BB60F968B868FFF7D4FB002000F092
:10193000E1FB0821022000F027FD374B0122009235
:101940000ECB364800F0FAFC354B1B781A46354969
:10195000354806F0FBFA0821282000F015FD2E4B33
:10196000012200920ECB304800F0E8FC1821022042
:1019700000F00AFD284B012200920ECB2B4800F00C
:10198000DDFC2B4B1B781A462A49274806F0DEFA65
:101990001821322000F0F8FC1F4B012200920ECBE0
:1019A000214800F0CBFCF868FFF78CFE00F0BAFB92
:1019B000214B1B680133204A13601F4B1B68092B06
:1019C00016D91D4B00221A60154B1B781A46184B6E
:1019D0001B781A49144806F0B9FA1348FEF7B8FB09
:1019E00003469AB24FF0FF330F49154804F0B0FE9A
:1019F000142000F0EDFF8BE7001002400070004063
:101A000000080140D0A00008FC01002020030020B5
:101A10000000E040ECA00008A4A8000800A1000815
:101A20009802002004A10008280400200CA100084E
:101A30009902002014A10008AC0400201CA1000899
:101A40005002002080B590B000AF07F118032822A3
:101A50000021184606F074FB3B1D00221A605A60F4
:101A60009A60DA601A610223BB610123BB62102312
:101A7000FB6200237B6307F11803184604F008FAA1
:101A80000346002B01D000F0C5F80F237B60002334
:101A9000BB600023FB6000233B6100237B613B1D97
:101AA0000021184604F076FC0346002B01D000F01C
:101AB000B1F800BF4037BD4680BD000080B500AF23
:101AC000124B134A1A60114B124A5A600F4B0022F4
:101AD0009A600E4B0022DA600C4B4FF480421A6180
:101AE0000A4B00225A61094B00229A61074B0022DF
:101AF000DA61064B00221A62044801F0F7FA034645
:101B0000002B01D000F086F800BF80BDFC01002052
:101B100000540040A086010080B500AF114B124A6E
:101B20001A60104B4FF4E1325A600E4B00229A605B
:101B30000C4B0022DA600B4B00221A61094B0C227D
:101B40005A61084B00229A61064B0022DA6105486F
:101B500004F0AEFD0346002B01D000F05BF800BF9F
:101B600080BD00BF500200200038014080B588B021
:101B700000AF07F1100300221A605A609A60DA6021
:101B8000204B9B691F4A43F0200393611D4B9B69C7
:101B900003F02003FB60FB681A4B9B69194A43F072
:101BA00004039361174B9B6903F00403BB60BB689C
:101BB000144B9B69134A43F008039361114B9B69D3
:101BC00003F008037B607B6801233B6100237B619A
:101BD0000023BB6107F1100319460B4801F0EAF836
:101BE0004FF480533B61094B7B610023BB6107F1DC
:101BF00010031946064801F0DDF800BF2037BD4646
:101C000080BD00BF0010024000080140000011101C
:101C1000000C014080B400AF72B600BF00BFFDE70A
:101C200080B483B000AF7860396000BF0C37BD4628
:101C300080BC704780B582B000AF786039607B6847
:101C40003A681A607B68002283F804217B680433B9
:101C500080220021184606F073FA7B6884338022C4
:101C60000021184606F06CFA00BF0837BD4680BD5B
:101C700080B588B002AFF8607A601A460B46FB72F6
:101C800013463B813B890133184605F027FB034689
:101C90007B617B69FA7A1A707B68002B09D03B89DB
:101CA000002B06D07B6901333A897968184606F023
:101CB000E4FAFB6818683B8901339BB24FF47A72EF
:101CC00000927A69AE2101F069FB786905F00EFB9C
:101CD00000BF1837BD4680BD80B588B002AFF86040
:101CE0007A601A460B46FB7213463B81FB7AFB7502
:101CF000FB68186807F117024FF47A730093012309
:101D0000AE2101F04BFBFB6818683B894FF47A72F7
:101D100000927A68AE2101F03FFC00BF1837BD4643
:101D200080BD80B584B000AF78604023FB7307F1BD
:101D30000F02012309217868FFF79AFF00BF1037CF
:101D4000BD4680BD80B584B000AF78600B46FB70A7
:101D500007F10F02012309217868FFF7BDFFFB7B24
:101D60005BB223F007035AB297F9033013435BB217
:101D7000DBB2FB7307F10F02012309217868FFF73B
:101D800077FF786800F090F800BF1037BD4680BD3F
:101D900080B584B000AF786039603868FEF744FBE6
:101DA0000DA3D3E90023FEF7C1FC02460B46104603
:101DB0001946FEF769FE0346DBB2FB7307F10F021B
:101DC00001230C217868FFF753FF00BF1037BD4691
:101DD00080BD00BFAFF300809A9999999999C93F46
:101DE00080B584B000AF786039603868FEF71CFBBE
:101DF0000DA3D3E90023FEF799FC02460B461046DB
:101E00001946FEF741FE0346DBB2FB7307F10F02F2
:101E100001230D217868FFF72BFF00BF1037BD4667
:101E200080BD00BFAFF300809A9999999999C93FF5
:101E300080B584B000AF7860084611461A46034664
:101E4000FB700B46BB7013467B700023FB7397F946
:101E500003305B015AB2FB7B5BB213435BB2DBB274
:101E6000FB7397F902301B015BB203F010035AB207
:101E7000FB7B5BB213435BB2DBB2FB7397F90130C0
:101E800003F00F035AB2FB7B5BB213435BB2DBB2CE
:101E9000FB7307F10F02012308217868FFF7E8FEC2
:101EA00000BF1037BD4680BD80B584B000AF7860FC
:101EB0000023FB7307F10F02032304217868FFF767
:101EC000D7FE07F10F02032306217868FFF7D0FE43
:101ED00007F10F02032305217868FFF7C9FE00BF51
:101EE0001037BD4680BD80B588B000AF7860002354
:101EF000FB740023BB7407F11302012304217868EB
:101F0000FFF7EAFE07F11202012306217868FFF7C6
:101F1000E3FEFA7CBB7CD31ADBB2FB7797F91F3068
:101F2000002B03DCFB7F2033DBB2FB770023BB7786
:101F300033E007F10C02062307217868FFF7CCFE97
:101F40003B7B1A047B7B1B021343BA7B1343C3F313
:101F50001103BB61FB7B1A043B7C1B0213437A7C9D
:101F60001343C3F311037B6197F91E307A689B001A
:101F70001344BA695A6097F91E307A6820339B007F
:101F800013447A695A607969B869FFF749FE97F98D
:101F90001E30DBB20133DBB2BB7797F91E2097F915
:101FA0001F309A42C5DB00BF00BF2037BD4680BD51
:101FB00080B400AF00BFBD4680BC704780B586B01E
:101FC00004AF0346FB714FF0FF33029301230193EB
:101FD000FB1D0093012300227821034801F048FDF6
:101FE00000BF0837BD4680BDFC01002080B586B02B
:101FF00004AF786039603B689BB24FF0FF320292C9
:1020000001937B680093012340227821034801F06B
:102010002FFD00BF0837BD4680BD00BFFC0100207A
:1020200080B500AFFFF7C4FF642000F0D1FC0020B2
:1020300000F042FA2020FFF7C1FF0020FFF7BEFFAB
:10204000B020FFF7BBFFC820FFF7B8FF0020FFF765
:10205000B5FF1020FFF7B2FF4020FFF7AFFFFF20D2
:1020600000F016FAA120FFF7A9FFA620FFF7A6FFB0
:10207000A820FFF7A3FF3F20FFF7A0FFA420FFF752
:102080009DFFD320FFF79AFF0020FFF797FFD52091
:10209000FFF794FFF020FFF791FFD920FFF78EFFA5
:1020A0002220FFF78BFFDA20FFF788FF1220FFF7CF
:1020B00085FFDB20FFF782FF2020FFF77FFF8D20C9
:1020C000FFF77CFF1420FFF779FF012000F0F4F9FF
:1020D000002000F00FF800F025F8054B00221A80D0
:1020E000034B00225A80024B01221A7100BF80BDAF
:1020F000B008002080B582B000AF0346FB71FB79C9
:10210000002B01D1002300E0FF234FF48062194629
:10211000034806F015F800BF0837BD4680BD00BF74
:10212000B004002080B582B000AF0023FB7116E040
:10213000FB79503BDBB21846FFF740FF0020FFF76A
:102140003DFF1020FFF73AFFFB79DB01084A1344FB
:1021500080211846FFF74AFFFB790133FB71FB79B9
:10216000072BE5D900BF00BF0837BD4680BD00BFC3
:10217000B004002080B483B000AF0346FB710B466F
:10218000BB7113467B7197F90730002B3DDBBB79A0
:102190003F2B3AD87B79012B1AD1FA79BB79DB082E
:1021A000D8B20346DB0113441A4AD35C5AB2BB7956
:1021B00003F00703012101FA03F35BB2134359B2A1
:1021C000FA790346DB011344C9B2124AD1541DE027
:1021D000FA79BB79DB08D8B20346DB0113440D4A18
:1021E000D35C5AB2BB7903F00703012101FA03F370
:1021F0005BB2DB435BB2134059B2FA790346DB01B1
:102200001344C9B2034AD15400E000BF0C37BD46A5
:1022100080BC7047B004002090B589B000AF044680
:10222000384680E80E002346FB73FB7B1F2B02D948
:10223000FB7B7E2B01D9002379E0BB68002B05D006
:10224000BA68FB7B203B13441B7800E03B78FB75AE
:10225000394B1B881A46FB7D1344802B06DC364B1A
:102260005B881A467B781344402B01DD00235EE037
:102270000023FB614DE07A68FB7B203B797801FB12
:1022800003F31946FB690B445B0013441B883B6155
:102290000023BB6136E03A69BB6902FA03F303F439
:1022A0000043002B13D0244B1B88DAB2BB69DBB28E
:1022B0001344D8B2204B5B88DAB2FB69DBB213441B
:1022C000DBB297F830201946FFF754FF17E01A4B9E
:1022D0001B88DAB2BB69DBB21344D8B2164B5B88F9
:1022E000DAB2FB69DBB21344D9B297F83030002B75
:1022F0000CBF01230023DBB21A46FFF73BFFBB698B
:102300000133BB61FB7DBA699A42C4D3FB690133D7
:10231000FB617B781A46FB699342ACD3064B1A8863
:10232000FB7D9BB213449AB2034B1A80FB7B184689
:102330002437BD4690BD00BFB008002080B586B0F0
:1023400002AFF860384680E80E0013E0FB681878AA
:102350003B7E00933B460ECBFFF75EFF03461A46DB
:10236000FB681B789A4202D0FB681B7808E0FB6888
:102370000133FB60FB681B78002BE7D1FB681B78FF
:1023800018461037BD4680BD80B483B000AF034609
:102390000A46FB711346BB71FB799AB2054B1A8052
:1023A000BB799AB2034B5A8000BF0C37BD4680BC44
:1023B000704700BFB008002090B589B000AF044658
:1023C000084611461A462346FB710346BB710B466D
:1023D0007B7113463B717A79FB79D31A002BB8BF16
:1023E0005B42BB613A79BB79D31A002BB8BF5B4221
:1023F0007B61FA797B799A4201D2012301E04FF0A7
:10240000FF333B61BA793B799A4201D2012301E063
:102410004FF0FF33FB60BA697B69D31AFB6197F811
:10242000302039797B791846FFF7A4FE24E097F82D
:102430003020B979FB791846FFF79CFEFB695B00F9
:10244000BB607B695B42BA689A4208DDFA697B69C6
:10245000D31AFB613B69DAB2FB791344FB71BA68AA
:10246000BB699A4208DAFA69BB691344FB61FB68ED
:10247000DAB2BB791344BB71FA797B799A42D6D12F
:10248000BA793B799A42D2D100BF2437BD4690BD7C
:1024900080B584B000AF0346FB718123FB73FB7BE7
:1024A0001846FFF78BFDFB791846FFF787FD00BF45
:1024B0001037BD4680BD000080B584B000AF034634
:1024C000FB71FB79002B05D0AF23FB73084B012276
:1024D0005A7104E0AE23FB73054B00225A71FB7B5B
:1024E0001846FFF76BFD00BF1037BD4680BD00BF2B
:1024F000B008002080B485B000AF154B9B69144A2A
:1025000043F001039361124B9B6903F00103BB602D
:10251000BB680F4BDB690E4A43F08053D3610C4B11
:10252000DB6903F080537B607B680A4B5B68FB6070
:10253000FB6823F0E063FB60FB6843F00073FB6023
:10254000044AFB68536000BF1437BD4680BC704727
:10255000001002400000014080B588B000AF7860F4
:1025600007F1100300221A605A609A60DA607B68F3
:102570001B681D4A934233D11C4B9B691B4A43F095
:1025800008039361194B9B6903F00803FB60FB6828
:10259000C0233B6112237B610323FB6107F110031E
:1025A0001946134800F006FC104BDB690F4A43F450
:1025B0000013D3610D4BDB6903F40013BB60BB68F0
:1025C000002200211F2000F0FEFA1F2000F017FB60
:1025D00000220021202000F0F6FA202000F00FFB5E
:1025E00000BF2037BD4680BD0054004000100240AF
:1025F000000C014080B588B000AF786007F110038F
:1026000000221A605A609A60DA607B681B68204A70
:10261000934239D11F4B9B691E4A43F48043936117
:102620001C4B9B6903F48043FB60FB68194B9B695F
:10263000184A43F004039361164B9B6903F00403AB
:10264000BB60BB684FF400733B6102237B610323D3
:10265000FB6107F1100319460F4800F0ABFB4FF484
:1026600080633B6100237B610023BB6107F11003A2
:102670001946094800F09EFB00220021252000F0A9
:10268000A2FA252000F0BBFA00BF2037BD4680BD6E
:1026900000380140001002400008014080B400AF43
:1026A00000BFFDE780B400AF00BFFDE780B400AF1E
:1026B00000BFFDE780B400AF00BFFDE780B400AF0E
:1026C00000BFFDE780B400AF00BFBD4680BC7047CF
:1026D00080B400AF00BFBD4680BC704780B400AF7F
:1026E00000BFBD4680BC704780B500AF00F054F914
:1026F00000BF80BD80B500AF024801F0B3FA00BF53
:1027000080BD00BFFC01002080B500AF024801F091
:102710001AFC00BF80BD00BFFC01002080B500AFE7
:10272000024804F0A1F800BF80BD00BF50020020A5
:1027300080B400AF01231846BD4680BC704780B509
:1027400082B000AF7860396005F05CFD0346162268
:102750001A604FF0FF3318460837BD4680BD80B57C
:1027600082B000AF78604FF0FF317868FFF7E7FF85
:1027700000BFFDE780B586B000AFF860B9607A6051
:1027800000237B610AE0AFF300800146BB685A1C5E
:10279000BA60CAB21A707B6901337B617A697B685F
:1027A0009A42F0DB7B6818461837BD4680BD80B57D
:1027B00086B000AFF860B9607A6000237B6109E001
:1027C000BB685A1CBA601B781846FEF771FC7B691F
:1027D00001337B617A697B689A42F1DB7B6818463A
:1027E0001837BD4680BD80B483B000AF78604FF02D
:1027F000FF3318460C37BD4680BC704780B483B0A9
:1028000000AF786039603B684FF400525A60002393
:1028100018460C37BD4680BC704780B483B000AF0B
:102820007860012318460C37BD4680BC704780B4E1
:1028300085B000AFF860B9607A600023184614379D
:10284000BD4680BC7047000080B586B000AF7860A0
:10285000144A154BD31A7B617B693B61134B1B6890
:10286000002B02D1114B124A1A60104B1A687B6878
:1028700013443A699A4207D205F0C4FC03460C227D
:102880001A604FF0FF3309E0084B1B68FB60074BF1
:102890001A687B681344054A1360FB6818461837AA
:1028A000BD4680BD0050002000040000B808002094
:1028B000100A002080B400AF00BFBD4680BC704746
:1028C000FFF7F8FF0B480C490C4A002302E0D458EC
:1028D000C4500433C4188C42F9D3094A094C00236C
:1028E00001E013600432A242FBD305F091FCFEF735
:1028F000C1FF704700000020E00100205CAC000830
:10290000E00100200C0A0020FEE7000080B500AFC7
:10291000084B1B68074A43F010031360032000F0C4
:1029200047F90F2000F008F8FFF7E4FD00231846F0
:1029300080BD00BF0020024080B582B000AF78604B
:10294000124B1A68124B1B7819464FF47A73B3FB7B
:10295000F1F3B2FBF3F3184600F05FF90346002BE6
:1029600001D001230EE07B680F2B0AD80022796882
:102970004FF0FF3000F027F9064A7B681360002310
:1029800000E0012318460837BD4680BD0C0000203A
:10299000140000201000002080B400AF054B1B780D
:1029A0001A46054B1B681344034A136000BFBD461B
:1029B00080BC704714000020BC08002080B400AF29
:1029C000024B1B681846BD4680BC7047BC080020FF
:1029D00080B584B000AF7860FFF7F0FFB8607B6827
:1029E000FB60FB68B3F1FF3F05D00A4B1B781A462A
:1029F000FB681344FB6000BFFFF7E0FF0246BB68C3
:102A0000D31AFA689A42F7D800BF00BF1037BD4604
:102A100080BD00BF1400002080B485B000AF786096
:102A20007B6803F00703FB600C4BDB68BB60BA6894
:102A30004FF6FF031340BB60FB681A02BB681343E9
:102A400043F0BF6343F40033BB60044ABB68D36008
:102A500000BF1437BD4680BC704700BF00ED00E0EA
:102A600080B400AF044BDB681B0A03F00703184671
:102A7000BD4680BC704700BF00ED00E080B483B06D
:102A800000AF0346FB7197F90730002B0BDBFB7996
:102A900003F01F02064997F907305B09012000FA8D
:102AA00002F241F8232000BF0C37BD4680BC7047BE
:102AB00000E100E080B483B000AF03463960FB71F1
:102AC00097F90730002B0ADB3B68DAB20C4997F91B
:102AD00007301201D2B20B4483F800230AE03B68AE
:102AE000DAB20849FB7903F00F03043B1201D2B2BA
:102AF0000B441A7600BF0C37BD4680BC704700BF40
:102B000000E100E000ED00E080B489B000AFF860C3
:102B1000B9607A60FB6803F00703FB61FB69C3F1EE
:102B20000703042B28BF0423BB61FB690433062B76
:102B300002D9FB69033B00E000237B614FF0FF32C9
:102B4000BB6902FA03F3DA43BB681A407B699A4017
:102B50004FF0FF317B6901FA03F3D9437B680B40E7
:102B6000134318462437BD4680BC704780B582B0F9
:102B700000AF78607B68013BB3F1807F01D3012314
:102B80000FE00A4A7B68013B53600F214FF0FF3092
:102B9000FFF790FF054B00229A60044B07221A6052
:102BA000002318460837BD4680BD00BF10E000E096
:102BB00080B582B000AF78607868FFF72DFF00BF66
:102BC0000837BD4680BD80B586B000AF0346B9600A
:102BD0007A60FB7300237B61FFF742FF78617A68BC
:102BE000B9687869FFF790FF024697F90F301146F0
:102BF0001846FFF75FFF00BF1837BD4680BD80B5A0
:102C000082B000AF0346FB7197F907301846FFF713
:102C100035FF00BF0837BD4680BD80B582B000AF2C
:102C200078607868FFF7A2FF034618460837BD466C
:102C300080BD80B485B000AF78600023FB737B68F3
:102C400093F82130DBB2022B08D07B6804229A6310
:102C50007B68002283F82020012320E07B681B682A
:102C60001A687B681B6822F00E021A607B681B687A
:102C70001A687B681B6822F001021A607B681A6C74
:102C80007B68DB6B012101FA02F25A607B6801224A
:102C900083F821207B68002283F82020FB7B1846E4
:102CA0001437BD4680BC704780B584B000AF7860F3
:102CB0000023FB737B6893F82130DBB2022B05D035
:102CC0007B6804229A630123FB7351E07B681B68D5
:102CD0001A687B681B6822F00E021A607B681B680A
:102CE0001A687B681B6822F001021A607B681B6807
:102CF000224A934229D07B681B68214A934222D002
:102D00007B681B681F4A93421AD07B681B681E4A67
:102D1000934212D07B681B681C4A93420AD07B689E
:102D20001B681B4A934202D14FF480130EE04FF010
:102D300080730BE04FF4803308E04FF4805305E0DC
:102D40004FF4807302E0102300E00123114A536026
:102D50007B68012283F821207B68002283F82020F1
:102D60007B685B6B002B03D07B685B6B7868984754
:102D7000FB7B18461037BD4680BD00BF08000240EF
:102D80001C00024030000240440002405800024053
:102D90006C0002400000024080B483B000AF786055
:102DA0007B6893F82130DBB218460C37BD4680BCF7
:102DB0007047000080B48BB000AF786039600023AA
:102DC0007B6200233B6269E101227B6A02FA03F322
:102DD000FB613B681B68FA691340BB61BA69FB6918
:102DE0009A4240F058813B685B689A4A93425ED0B1
:102DF000984A934275D8984A934258D0964A93423B
:102E00006FD8964A934252D0944A934269D8944AD2
:102E100093424CD0924A934263D8924A934246D00E
:102E2000904A93425DD8122B2AD8122B59D801A26E
:102E300052F823F0AF2E0008892E00089B2E0008C0
:102E4000DD2E0008E32E0008E32E0008E32E000824
:102E5000E32E0008E32E0008E32E0008E32E00080E
:102E6000E32E0008E32E0008E32E0008E32E0008FE
:102E7000E32E0008E32E0008912E0008A52E00087E
:102E8000794A934213D02CE03B68DB683B6229E02F
:102E90003B68DB6804333B6224E03B68DB68083353
:102EA0003B621FE03B68DB680C333B621AE03B6827
:102EB0009B68002B02D104233B6213E03B689B68B4
:102EC000012B05D108233B627B68FA691A6109E08E
:102ED00008233B627B68FA695A6103E000233B6286
:102EE00000E000BFBB69FF2B01D87B6801E07B6875
:102EF00004337B61BB69FF2B02D87B6A9B0002E035
:102F00007B6A083B9B003B617B691A680F213B6928
:102F100001FA03F3DB431A40396A3B6901FA03F310
:102F20001A437B691A603B685B6803F08053002B8F
:102F300000F0B1804D4B9B694C4A43F00103936113
:102F40004A4B9B6903F00103BB60BB68484A7B6A3C
:102F50009B08023352F82330FB607B6A03F00303C3
:102F60009B000F2202FA03F3DB43FA681340FB6075
:102F70007B68404A934213D07B683F4A93420DD00E
:102F80007B683E4A934207D07B683D4A934201D119
:102F9000032306E0042304E0022302E0012300E00F
:102FA00000237A6A02F0030292009340FA68134306
:102FB000FB602F497B6A9B080233FA6841F82320A3
:102FC0003B685B6803F48013002B06D02D4B9A6896
:102FD0002C49BB6913438B6006E02A4B9A68BB6996
:102FE000DB43284913408B603B685B6803F40013A4
:102FF000002B06D0234BDA682249BB691343CB6010
:1030000006E0204BDA68BB69DB431E491340CB6006
:103010003B685B6803F40033002B06D0194B5A68F9
:103020001849BB6913434B6006E0164B5A68BB69ED
:10303000DB43144913404B603B685B6803F4803307
:10304000002B21D00F4B1A680E49BB6913430B604C
:1030500021E000BF000032100000311000002210FB
:10306000000021100000121000001110001002409A
:103070000000014000080140000C01400010014028
:1030800000140140000401400B4B1A68BB69DB438C
:10309000094913400B607B6A01337B623B681A6805
:1030A0007B6A22FA03F3002B7FF48EAE00BF00BFD1
:1030B0002C37BD4680BC70470004014080B485B009
:1030C00000AF78600B467B807B689A687B881340F2
:1030D000002B02D00123FB7301E00023FB73FB7B79
:1030E00018461437BD4680BC7047000080B584B0D8
:1030F00000AF78607B68002B01D101232BE17B6856
:1031000093F83D30DBB2002B06D17B68002283F8B8
:103110003C207868FFF720FA7B68242283F83D2062
:103120007B681B681A687B681B6822F001021A60C2
:103130007B681B681A687B681B6842F400421A604F
:103140007B681B681A687B681B6822F400421A605F
:1031500003F068FAF8607B685B68814A934207D89D
:10316000FB68804A934294BF01230023DBB206E050
:10317000FB687D4A934294BF01230023DBB2002BFE
:1031800001D00123E7E0FB68784AA2FB03239B0CF4
:10319000BB607B681B685B6823F03F017B681B6832
:1031A000BA680A435A607B681B681B6A23F03F01B8
:1031B0007B685B686A4A934202D8BB68013309E0C6
:1031C000BB684FF4967202FB03F3694AA2FB032328
:1031D0009B0901337A6812680B4313627B681B6892
:1031E000DB6923F44F4222F0FF027B685B685C4995
:1031F0008B4219D8FB68591E7B685B685B00B1FB8A
:10320000F3F3591C40F6FC730B40002B0AD0FB680B
:10321000591E7B685B685B00B1FBF3F30133C3F3BA
:103220000B0351E004234FE07B689B68002B11D116
:10323000FB68581E7B6859680B465B000B44B0FB6B
:10324000F3F30133C3F30B03002B0CBF0123002363
:10325000DBB212E0FB68581E7B6859680B469B0086
:103260000B4499000B44B0FBF3F30133C3F30B039E
:10327000002B0CBF01230023DBB2002B01D0012364
:1032800022E07B689B68002B0ED1FB68581E7B6890
:1032900059680B465B000B44B0FBF3F30133C3F3F7
:1032A0000B0343F400430FE0FB68581E7B6859682A
:1032B0000B469B000B4499000B44B0FBF3F3013326
:1032C000C3F30B0343F44043796809681343CB61AC
:1032D0007B681B681B6823F0C0017B68DA697B6828
:1032E0001B6A1A437B681B680A431A607B681B6869
:1032F0009B6823F4034323F0FF037A6811697A681B
:10330000D26811437A6812680B4393607B681B682C
:10331000DB6823F0FF017B685A697B689B691A436D
:103320007B681B680A43DA607B681B681A687B68E5
:103330001B6842F001021A607B6800221A647B68F5
:10334000202283F83D207B6800221A637B680022DC
:1033500083F83E20002318461037BD4680BD00BFCD
:10336000A08601007F841E00FF083D0083DE1B4312
:10337000D34D621080B483B000AF78607B681B6867
:103380005B6903F08003802B03D17B681B680022FC
:103390001A6100BF0C37BD4680BC704780B588B04D
:1033A00002AFF8607A601A460B467B8113463B8178
:1033B000FFF704FB7861FB6893F83D30DBB2202B0C
:1033C00040F0E0807B690093192301227049F8687E
:1033D00002F0DCFA0346002B01D00223D3E0FB68A5
:1033E00093F83C30012B01D10223CCE0FB68012291
:1033F00083F83C20FB681B681B6803F00103012B6A
:1034000007D0FB681B681A68FB681B6842F0010262
:103410001A60FB681B681A68FB681B6822F400626C
:103420001A60FB68212283F83D20FB68102283F894
:103430003E20FB6800221A64FB687A685A62FB68C7
:103440003A895A85FB685B8D9AB2FB681A85FB68DE
:10345000504ADA6279897B693A6AF86802F008F8BA
:103460000346002B01D001238DE000233B61FB6864
:103470001B685B693B61FB681B689B693B613B693F
:1034800066E07A69396AF86802F09AFB0346002B15
:103490000DD0FB681B6C042B07D1FB681B681A68F6
:1034A000FB681B6842F400721A6001236BE0FB6842
:1034B0005B6A1A78FB681B681A61FB685B6A5A1CB6
:1034C000FB685A62FB685B8D9BB2013B9AB2FB685A
:1034D0005A85FB681B8D013B9AB2FB681A85FB6815
:1034E0001B685B6903F00403042B1BD1FB681B8D75
:1034F000002B17D0FB685B6A1A78FB681B681A619F
:10350000FB685B6A5A1CFB685A62FB685B8D9BB266
:10351000013B9AB2FB685A85FB681B8D013B9AB24E
:10352000FB681A857A69396AF86802F091FB0346EC
:10353000002B0DD0FB681B6C042B07D1FB681B68AC
:103540001A68FB681B6842F400721A6001231AE0D3
:10355000FB681B8D002B94D1FB681B681A68FB6805
:103560001B6842F400721A60FB68202283F83D2039
:10357000FB68002283F83E20FB68002283F83C2091
:10358000002300E0022318461837BD4680BD00BF67
:10359000020010000000FFFF80B58CB002AFF860A1
:1035A0007A601A460B467B8113463B8100233B62BF
:1035B000FFF704FA7862FB6893F83D30DBB2202B0A
:1035C00040F04B827B6A0093192301227F49F868FF
:1035D00002F0DCF90346002B01D002233EE2FB6837
:1035E00093F83C30012B01D1022337E2FB68012222
:1035F00083F83C20FB681B681B6803F00103012B68
:1036000007D0FB681B681A68FB681B6842F0010260
:103610001A60FB681B681A68FB681B6822F400626A
:103620001A60FB68222283F83D20FB68102283F891
:103630003E20FB6800221A64FB687A685A62FB68C5
:103640003A895A85FB685B8D9AB2FB681A85FB68DC
:103650005F4ADA6279897B6A3A6BF86801F08AFF1F
:103660000346002B01D00123F8E1FB681B8D002BE2
:1036700013D10023FB61FB681B685B69FB61FB687E
:103680001B689B69FB61FB69FB681B681A68FB6828
:103690001B6842F400721A60CCE1FB681B8D012BA1
:1036A0001ED1FB681B681A68FB681B6822F48062E5
:1036B0001A6072B600BF0023BB61FB681B685B69C0
:1036C000BB61FB681B689B69BB61BB69FB681B68CE
:1036D0001A68FB681B6842F400721A6062B635E033
:1036E000FB681B8D022B1ED1FB681B681A68FB68E8
:1036F0001B6842F400621A6072B600BF00237B614F
:10370000FB681B685B697B61FB681B689B697B616D
:103710007B69FB681B681A68FB681B6822F480627F
:103720001A6062B612E0FB681B681A68FB681B68C7
:1037300042F480621A6000233B61FB681B685B698E
:103740003B61FB681B689B693B613B6972E1FB68FD
:103750001B8D032B00F21F81FB681B8D012B23D1D6
:103760007A6A396BF86802F0EDFA0346002B01D053
:10377000012373E1FB681B681A69FB685B6AD2B2BC
:103780001A70FB685B6A5A1CFB685A62FB681B8DE7
:10379000013B9AB2FB681A85FB685B8D9BB2013BCB
:1037A0009AB2FB685A8545E1FB681B8D022B52D10A
:1037B0007B6A00933B6B00220649F86802F0E6F84A
:1037C0000346002B08D0012348E100BF020010008F
:1037D0000000FFFF0400010072B600BFFB681B6819
:1037E0001A68FB681B6842F400721A60FB681B6869
:1037F0001A69FB685B6AD2B21A70FB685B6A5A1C72
:10380000FB685A62FB681B8D013B9AB2FB681A8504
:10381000FB685B8D9BB2013B9AB2FB685A8562B62E
:1038200000BFFB681B681A69FB685B6AD2B21A703A
:10383000FB685B6A5A1CFB685A62FB681B8D013B84
:103840009AB2FB681A85FB685B8D9BB2013B9AB20A
:10385000FB685A85EEE07B6A00933B6B002281494E
:10386000F86802F093F80346002B01D00123F5E03D
:10387000FB681B681A68FB681B6822F480621A6088
:1038800072B600BFFB681B681A69FB685B6AD2B23C
:103890001A70FB685B6A5A1CFB685A62FB681B8DD6
:1038A000013B9AB2FB681A85FB685B8D9BB2013BBA
:1038B0009AB2FB685A856C4B1B68DB086B4AA2FB0B
:1038C00003231A0A13469B001344DA00D31A3B62FF
:1038D0003B6A013B3B623B6A002B18D1FB6800222C
:1038E0001A63FB68202283F83D20FB68002283F8DE
:1038F0003E20FB681B6C43F02002FB681A6462B632
:1039000000BFFB68002283F83C200123A6E0FB688F
:103910001B685B6903F00403042BD9D1FB681B68A7
:103920001A68FB681B6842F400721A60FB681B6827
:103930001A69FB685B6AD2B21A70FB685B6A5A1C30
:10394000FB685A62FB681B8D013B9AB2FB681A85C3
:10395000FB685B8D9BB2013B9AB2FB685A8562B6ED
:1039600000BFFB681B681A69FB685B6AD2B21A70F9
:10397000FB685B6A5A1CFB685A62FB681B8D013B43
:103980009AB2FB681A85FB685B8D9BB2013B9AB2C9
:10399000FB685A854EE07A6A396BF86802F0D2F912
:1039A0000346002B01D0012358E0FB681B681A690D
:1039B000FB685B6AD2B21A70FB685B6A5A1CFB68D0
:1039C0005A62FB681B8D013B9AB2FB681A85FB6843
:1039D0005B8D9BB2013B9AB2FB685A85FB681B6802
:1039E0005B6903F00403042B24D1FB681B8D032BBC
:1039F00007D1FB681B681A68FB681B6822F48062A9
:103A00001A60FB681B681A69FB685B6AD2B21A709D
:103A1000FB685B6A5A1CFB685A62FB681B8D013BA2
:103A20009AB2FB681A85FB685B8D9BB2013B9AB228
:103A3000FB685A85FB681B8D002B7FF488AEFB6802
:103A4000202283F83D20FB68002283F83E20FB689B
:103A5000002283F83C20002300E002231846283788
:103A6000BD4680BD040001000C00002089B5F8149B
:103A700080B588B002AFF860084611461A46034682
:103A80007B810B463B811346FB80FEF797FF7861F5
:103A9000FB6893F83D30DBB2202B40F0D9807B6986
:103AA0000093192301226D49F86801F06FFF034666
:103AB000002B01D00223CCE0FB6893F83C30012BB3
:103AC00001D10223C5E0FB68012283F83C20FB689A
:103AD0001B681B6803F00103012B07D0FB681B6800
:103AE0001A68FB681B6842F001021A60FB681B68D9
:103AF0001A68FB681B6822F400621A60FB682122C6
:103B000083F83D20FB68402283F83E20FB680022BA
:103B10001A64FB683A6A5A62FB68BA8C5A85FB6879
:103B20005B8D9AB2FB681A85FB684D4ADA62F888A9
:103B30003A8979897B690193BB6A00930346F868E7
:103B400001F0E6FD0346002B52D0012381E07A69A3
:103B5000B96AF86802F034F80346002B0DD0FB6810
:103B60001B6C042B07D1FB681B681A68FB681B6879
:103B700042F400721A6001236BE0FB685B6A1A78FA
:103B8000FB681B681A61FB685B6A5A1CFB685A6217
:103B9000FB681B8D013B9AB2FB681A85FB685B8D45
:103BA0009BB2013B9AB2FB685A85FB681B685B6954
:103BB00003F00403042B1BD1FB681B8D002B17D0D3
:103BC000FB685B6A1A78FB681B681A61FB685B6AB2
:103BD0005A1CFB685A62FB681B8D013B9AB2FB685A
:103BE0001A85FB685B8D9BB2013B9AB2FB685A85D4
:103BF000FB681B8D002BAAD17A69B96AF86802F0BC
:103C000027F80346002B0DD0FB681B6C042B07D153
:103C1000FB681B681A68FB681B6842F400721A6034
:103C2000012316E0FB681B681A68FB681B6842F4F6
:103C300000721A60FB68202283F83D20FB68002296
:103C400083F83E20FB68002283F83C20002300E03C
:103C5000022318461837BD4680BD00BF0200100081
:103C60000000FFFF80B588B000AF78600023BB6123
:103C70007B681B685B687B617B68DB6A3B617B6898
:103C800093F83E30FB737B6893F83D30BB73FB7B4E
:103C9000102B03D0FB7B402B40F0C1807B681B685E
:103CA0009B69BB617B681B685B69FB61FB6903F017
:103CB0000103002B0DD13B69B3F52A0F03D03B69FB
:103CC000B3F12A4F01D1012300E00023012B00F0C2
:103CD0003281FB6903F00103002B0CD07B695B0A86
:103CE00003F00103002B06D0786802F0B6F878687C
:103CF00000F099FD92E0FB69DB0803F00103002B63
:103D000009D07B695B0A03F00103002B03D07868BC
:103D100000F00EFE82E0FB695B0803F00103002B5C
:103D200009D07B695B0A03F00103002B03D078689C
:103D300000F027FE72E0BB699B0803F00103002B33
:103D40003BD07B681B685B6803F40063B3F5006FCE
:103D500000F0F380FB69DB0903F00103002B0FD0B7
:103D60007B699B0A03F00103002B09D0FB699B08C8
:103D700003F00103002B03D1786800F0F1F94DE066
:103D8000FB699B0803F00103002B00F0D6807B69E0
:103D90005B0A03F00103002B00F0CF80BB7B212BDB
:103DA00003D1786800F078FAC7E0FB7B402B40F045
:103DB000C480786800F0E6FABFE07B681B685B6847
:103DC00003F40063B3F5006F00F0B780FB699B0953
:103DD00003F00103002B0FD07B699B0A03F0010362
:103DE000002B09D0FB699B0803F00103002B03D1D2
:103DF000786800F05FFB11E0FB699B0803F00103AA
:103E0000002B00F09A807B695B0A03F00103002B12
:103E100000F09380786800F015FC8EE08DE07B6800
:103E20001B6C002B04D07B681B685B69FB6107E09F
:103E30007B681B689B69BB617B681B685B69FB6176
:103E4000FB695B0803F00103002B12D07B695B0A5E
:103E500003F00103002B0CD07B681B6C002B03D0FC
:103E60007B681B689B69BB61B969786800F0E0FFFB
:103E700066E0FB691B0903F00103002B09D07B6995
:103E80005B0A03F00103002B03D0786801F01AF8F5
:103E900056E0BB7B212B02D0BB7B292B25D1FB69B4
:103EA000DB0903F00103002B0FD07B699B0A03F0B1
:103EB0000103002B09D0FB699B0803F00103002BD1
:103EC00003D1786800F0F8FE39E0FB699B0803F045
:103ED0000103002B33D07B695B0A03F00103002B45
:103EE0002DD0786800F025FF29E0FB699B0903F0DD
:103EF0000103002B0FD07B699B0A03F00103002B09
:103F000009D0FB699B0803F00103002B03D17868FB
:103F100000F02FFF14E0FB699B0803F00103002B66
:103F20000ED07B695B0A03F00103002B08D0786890
:103F300000F05DFF04E000BF02E000BF00E000BF52
:103F40002037BD4680BD80B58AB000AF78607B6801
:103F50001B685B693B627B681B685B68FB610023D5
:103F60007B627B6893F83E30FB763B6A1B0A03F06A
:103F70000103002B16D0FB691B0A03F00103002B81
:103F800010D07B6A43F001037B627B681B686FF48F
:103F900080725A617B681B681A687B681B6842F4F0
:103FA00000421A603B6A5B0A03F00103002B0ED04B
:103FB000FB691B0A03F00103002B08D07B6A43F066
:103FC00002037B627B681B686FF400725A613B6A74
:103FD0009B0A03F00103002B3FD0FB691B0A03F08F
:103FE0000103002B39D0FB7EBB767B685B8D9BB2D7
:103FF0007B617B6893F83D30FB747B681B6BFB60D7
:10400000BB7E202B12D17B69002B0FD1FB7C212B97
:1040100008D0FB7C292B05D0FB7C282B06D1FB6824
:10402000212B03D1786801F07DF816E07B681B68CE
:104030006FF480625A617B6A43F004037B62FB7E0B
:10404000102B02D0FB7E402B07D17B681B681A68BF
:104050007B681B6842F400721A603B6ADB0A03F05B
:104060000103002B0ED0FB691B0A03F00103002B98
:1040700008D07B6A43F008037B627B681B686FF49F
:1040800000625A617B6A002B08D07B681A6C7B6ADD
:104090001A437B681A64786801F0B8F800BF2837C3
:1040A000BD4680BD80B483B000AF786000BF0C37E0
:1040B000BD4680BC704780B483B000AF786000BF5D
:1040C0000C37BD4680BC704780B483B000AF7860C9
:1040D00000BF0C37BD4680BC704780B483B000AFD2
:1040E000786000BF0C37BD4680BC704780B483B099
:1040F00000AF78600B46FB7013463B8000BF0C3767
:10410000BD4680BC704780B483B000AF786000BF0C
:104110000C37BD4680BC704780B483B000AF786078
:1041200000BF0C37BD4680BC704780B483B000AF81
:10413000786000BF0C37BD4680BC704780B483B048
:1041400000AF786000BF0C37BD4680BC704780B4BC
:1041500083B000AF786000BF0C37BD4680BC7047AD
:1041600080B584B000AF78607B6893F83D30FB7316
:104170007B6893F83E30BB737B68DB6ABB607B680F
:104180001B8D002B50D1FB7B212B4DD1BB68082B05
:104190001DD0BB68202B1AD0BB6813F5803F16D00A
:1041A0007B681B685A687B681B6822F4E0625A606F
:1041B0007B6811221A637B68002283F83E207B68AB
:1041C000202283F83D207868FFF76CFF60E07B6871
:1041D0001B685A687B681B6822F4E0625A607B683F
:1041E0001B681A687B681B6842F400721A607B685F
:1041F00000221A637B68202283F83D207B6893F8B5
:104200003E30DBB2402B07D17B68002283F83E2092
:104210007868FFF781FF3BE07B68002283F83E204F
:104220007868FFF73FFF33E0FB7B212B05D0BB7B9A
:10423000402B2DD1FB7B222B2AD17B685B8D9BB23F
:10424000002B08D17B681B685A687B681B6822F4C6
:1042500080625A601CE07B6893F83E30DBB2402BF2
:1042600003D1786800F08EF812E07B685B6A1A78F8
:104270007B681B681A617B685B6A5A1C7B685A62A0
:104280007B685B8D9BB2013B9AB27B685A85FFE7E6
:1042900000BF1037BD4680BD80B584B000AF7860E8
:1042A0007B68DB6AFB607B6893F83D30DBB2212BD7
:1042B00064D17B685B8D9BB2002B12D07B685B6AFC
:1042C0001A787B681B681A617B685B6A5A1C7B687A
:1042D0005A627B685B8D9BB2013B9AB27B685A85C0
:1042E0004CE0FB68082B1DD0FB68202B1AD0FB6824
:1042F00013F5803F16D07B681B685A687B681B6883
:1043000022F4E0625A607B6811221A637B68002203
:1043100083F83E207B68202283F83D207868FFF7F1
:10432000C1FE2BE07B681B685A687B681B6822F41F
:10433000E0625A607B681B681A687B681B6842F4FD
:1043400000721A607B6800221A637B68202283F85F
:104350003D207B6893F83E30DBB2402B07D17B6871
:10436000002283F83E207868FFF7D6FE06E07B68DF
:10437000002283F83E207868FFF794FE00BF1037D4
:10438000BD4680BD80B584B000AF78607B6893F88F
:104390003D30FB737B681B6D002B1DD17B68DB6C94
:1043A000012B0BD17B689B6CDAB27B681B681A61AE
:1043B0007B681B6D9A1C7B681A6577E07B689B6C39
:1043C0009BB21B12DAB27B681B681A617B681B6D9B
:1043D0005A1C7B681A6569E07B681B6D012B0BD149
:1043E0007B689B6CDAB27B681B681A617B681B6D0B
:1043F0005A1C7B681A6559E07B681B6D022B52D1F1
:10440000FB7B222B0DD17B681B681A687B681B68BD
:1044100042F480721A607B681B6D5A1C7B681A65B7
:1044200044E07B685B8D9BB2002B15D0FB7B212B7E
:1044300012D17B685B6A1A787B681B681A617B689B
:104440005B6A5A1C7B685A627B685B8D9BB2013B3E
:104450009AB27B685A8529E07B685B8D9BB2002B02
:1044600024D1FB7B212B21D17B681B685A687B6898
:104470001B6822F4E0625A607B681B681A687B68DC
:104480001B6842F400721A607B6800221A637B6822
:10449000202283F83D207B68002283F83E20786844
:1044A000FFF73AFE02E07868FEF764FF00BF1037BE
:1044B000BD4680BD80B584B000AF78607B6893F85E
:1044C0003D30DBB2222B40F0B9807B68DB6AFB60B9
:1044D0007B685B8D9BB2BB60BB68032B21D97B687B
:1044E0001B681A697B685B6AD2B21A707B685B6A68
:1044F0005A1C7B685A627B685B8D9BB2013B9AB207
:104500007B685A857B685B8D9BB2032B40F096805D
:104510007B681B685A687B681B6822F480625A605B
:104520008CE07B68DB6A022B7FD0BB68012B02D05A
:10453000BB68002B79D1786801F0D2FB0346002BD1
:104540004CD17B681B681A687B681B6822F4806208
:104550001A607B681B685A687B681B6822F4E062FB
:104560005A607B681B681A697B685B6AD2B21A70F2
:104570007B685B6A5A1C7B685A627B685B8D9BB266
:10458000013B9AB27B685A857B68202283F83D20E4
:104590007B6893F83E30DBB2402B0AD17B68002267
:1045A00083F83E207B6800221A637868FFF7BDFD20
:1045B00044E07B68002283F83E20FB68082B02D091
:1045C000FB68202B03D17B6800221A6302E07B6822
:1045D00012221A637868FFF76EFD2FE07B681B6874
:1045E0005A687B681B6822F4E0625A607B681B682B
:1045F0001A697B685B6AD2B21A707B685B6A5A1C64
:104600007B685A627B685B8D9BB2013B9AB27B6888
:104610005A857B68202283F83D207B68002283F83E
:104620003E207868FFF78AFD08E07B681B685A68BF
:104630007B681B6822F480625A60FFE700BF103776
:10464000BD4680BD80B584B000AF78607B68DB6A12
:10465000FB607B685B8D9BB2042B1BD17B681B6866
:104660005A687B681B6822F480625A607B681B680A
:104670001A697B685B6AD2B21A707B685B6A5A1CE3
:104680007B685A627B685B8D9BB2013B9AB27B6808
:104690005A85C4E07B685B8D9BB2032B29D17B6874
:1046A0001B685A687B681B6822F480625A60FB684A
:1046B000042B0AD0FB68022B07D07B681B681A68A2
:1046C0007B681B6822F480621A607B681B681A6929
:1046D0007B685B6AD2B21A707B685B6A5A1C7B6823
:1046E0005A627B685B8D9BB2013B9AB27B685A85AC
:1046F00095E07B685B8D9BB2022B7DD1FB68012B23
:1047000002D0FB68102B08D17B681B681A687B6895
:104710001B6822F480621A6016E0FB68042B02D04A
:10472000FB68022B08D17B681B681A687B681B68D2
:1047300042F480621A6007E07B681B681A687B6835
:104740001B6842F400721A607B681B681A697B68F8
:104750005B6AD2B21A707B685B6A5A1C7B685A62C9
:104760007B685B8D9BB2013B9AB27B685A857B6804
:104770001B681A697B685B6AD2B21A707B685B6AD5
:104780005A1C7B685A627B685B8D9BB2013B9AB274
:104790007B685A857B681B685A687B681B6822F4B3
:1047A00040725A607B68202283F83D207B6893F832
:1047B0003E30DBB2402B0AD17B68002283F83E20DA
:1047C0007B6800221A637868FFF7AFFC27E07B68FC
:1047D000002283F83E20FB68082B02D0FB68202BC8
:1047E00003D17B6800221A6302E07B6812221A63FD
:1047F0007868FFF760FC12E07B681B681A697B68C9
:104800005B6AD2B21A707B685B6A5A1C7B685A6218
:104810007B685B8D9BB2013B9AB27B685A8500BF77
:104820001037BD4680BD80B483B000AF78607B6830
:1048300093F83E30DBB2402B17D17B681B6D002B09
:1048400009D17B685B6CDBB21A467B681B6802F09F
:10485000FE021A6167E07B685B6CDBB243F0010328
:10486000DAB27B681B681A615DE07B681B69B3F58F
:10487000804F33D17B6893F83D30DBB2212B09D1D7
:104880007B685B6CDBB21A467B681B6802F0FE0239
:104890001A6108E07B685B6CDBB243F00103DAB2BB
:1048A0007B681B681A617B685B6B002B04D07B689C
:1048B0005B6B9B6A002B08D17B689B6B002B32D013
:1048C0007B689B6B9B6A002B2DD07B681B685A68AA
:1048D0007B681B6842F400625A6024E07B681B6DB1
:1048E000002B0ED17B685B6C9BB2DB11DBB203F05B
:1048F0000603DBB263F00F03DAB27B681B681A6150
:1049000011E07B681B6D012B0DD17B685B6C9BB24A
:10491000DB11DBB203F00603DBB263F00E03DAB2A5
:104920007B681B681A6100BF0C37BD4680BC7047AE
:1049300080B483B000AF78607B685B6CDAB27B6870
:104940001B681A617B685B6B002B04D07B685B6B18
:104950009B6A002B08D17B689B6B002B0CD07B687B
:104960009B6B9B6A002B07D07B681B685A687B682F
:104970001B6842F400625A6000BF0C37BD4680BC21
:10498000704780B491B000AF78607B6893F83E3098
:1049900087F83F307B68DB6ABB637B681B6B7B639C
:1049A0007B6893F83D30DBB2222B40F074817B684A
:1049B0001B6D002B0FD197F83F30402B0BD10023FC
:1049C0003B637B681B685B693B637B681B689B6917
:1049D0003B633B6B6BE17B681B6D002B1DD17B68E0
:1049E0001B69B3F5404F18D10023FB627B681B683D
:1049F0005B69FB627B681B689B69FB62FB6A7B6887
:104A00001B681A687B681B6842F480721A607B68B6
:104A10001B6D5A1C7B681A6549E17B685B8D9BB2F4
:104A2000002B13D10023BB627B681B685B69BB62F0
:104A30007B681B689B69BB62BB6A7B681B681A68E2
:104A40007B681B6842F400721A6020E17B685B8D12
:104A50009BB2012B40F08A80BB6B13F5803F37D1AE
:104A60007B681B681A687B681B6822F480621A6086
:104A70007B681B685B6803F40063B3F5006F13D1B8
:104A80007B681B681A687B681B6822F480621A6066
:104A900000237B627B681B685B697B627B681B68A9
:104AA0009B697B627B6AF2E000233B627B681B6848
:104AB0005B693B627B681B689B693B623B6A7B6806
:104AC0001B681A687B681B6842F400721A60DEE09B
:104AD000BB6B082B2ED0BB6B202B2BD07B6B122BF0
:104AE00002D1BB6B012B25D1BB6B042B0ED0BB6B52
:104AF000022B0BD0BB6B102B08D07B681B681A688D
:104B00007B681B6822F480621A6007E07B681B6880
:104B10001A687B681B6842F480621A600023FB619C
:104B20007B681B685B69FB617B681B689B69FB6139
:104B3000FB69ACE07B681B681A687B681B6822F421
:104B400080621A600023BB617B681B685B69BB6184
:104B50007B681B689B69BB61BB697B681B681A68C3
:104B60007B681B6842F400721A6090E07B685B8D82
:104B70009BB2022B58D1BB6B042B21D0BB6B022BF9
:104B80001ED0BB6B102B1BD07B681B681A687B6820
:104B90001B6842F400621A6000237B617B681B681B
:104BA0005B697B617B681B689B697B617B697B6858
:104BB0001B681A687B681B6822F480621A6012E026
:104BC0007B681B681A687B681B6842F480621A6005
:104BD00000233B617B681B685B693B617B681B68EA
:104BE0009B693B613B697B681B685B6803F40063FE
:104BF000B3F5006F4BD1BB6B13F5803F0BD0BB6B94
:104C0000012B08D0BB6B082B05D0BB6B102B02D03F
:104C1000BB6B202B3BD17B681B685A687B681B6889
:104C200042F480525A6032E07B681B681A687B68E5
:104C30001B6842F480621A607B681B685B6803F43F
:104C40000063B3F5006F17D1BB6B13F5803F0BD03A
:104C5000BB6B012B08D0BB6B082B05D0BB6B102B9B
:104C600002D0BB6B202B07D17B681B685A687B681E
:104C70001B6842F480525A600023FB607B681B680B
:104C80005B69FB607B681B689B69FB60FB687B68FA
:104C900000221A650BE00023BB607B681B685B6920
:104CA000BB607B681B689B69BB60BB68FFE700BF9C
:104CB0004437BD4680BC704780B584B000AF786093
:104CC0007B6893F83D30FB737B685B8D9BB2002B58
:104CD0002BD07B685B6A1A787B681B681A617B68DB
:104CE0005B6A5A1C7B685A627B685B8D9BB2013B96
:104CF0009AB27B685A857B685B8D9BB2002B14D17E
:104D0000FB7B292B11D17B681B685A687B681B6869
:104D100022F480625A607B6821221A637B68282211
:104D200083F83D207868FFF7CFF900BF1037BD4604
:104D300080BD80B483B000AF78607B685B8D9BB230
:104D4000002B11D07B685B6A1A787B681B681A613C
:104D50007B685B6A5A1C7B685A627B685B8D9BB27E
:104D6000013B9AB27B685A8500BF0C37BD4680BCB8
:104D7000704780B584B000AF78607B6893F83D30B1
:104D8000FB737B685B8D9BB2002B2CD07B681B6810
:104D90001A697B685B6AD2B21A707B685B6A5A1CBC
:104DA0007B685A627B685B8D9BB2013B9AB27B68E1
:104DB0005A857B685B8D9BB2002B14D1FB7B2A2B21
:104DC00011D17B681B685A687B681B6822F480627B
:104DD0005A607B6822221A637B68282283F83D2070
:104DE0007868FFF77AF900BF1037BD4680BD80B400
:104DF00083B000AF78607B685B8D9BB2002B12D0D4
:104E00007B681B681A697B685B6AD2B21A707B6820
:104E10005B6A5A1C7B685A627B685B8D9BB2013B64
:104E20009AB27B685A8500BF0C37BD4680BC70477C
:104E300080B584B000AF786039600023FB737B6875
:104E400093F83D30DBB203F02803282B27D17B6891
:104E50001B685A687B681B6822F480625A603B6852
:104E60009B0803F00103002B01D10123FB733B6876
:104E7000DB0903F00103002B03D17B68DB68BB81F6
:104E800002E07B689B69BB817B68002283F83C2041
:104E9000BA89FB7B19467868FFF728F90EE00023F2
:104EA000BB607B681B685B69BB607B681B689B6938
:104EB000BB60BB687B68002283F83C2000BF1037D2
:104EC000BD4680BD80B584B000AF78607B6893F844
:104ED0003D30FB737B681B685A687B681B6822F453
:104EE000E0625A600023BB607B681B685B69BB6043
:104EF0007B681B681A687B681B6842F001021A60B5
:104F0000BB687B681B681A687B681B6822F4806238
:104F10001A607B681B685B6803F40063B3F5006F7D
:104F200072D1FB7B222B02D0FB7B2A2B35D17B68F5
:104F30009B6B1B685B689AB27B685A857B685B8D4C
:104F40009BB2002B05D07B681B6C43F004027B688E
:104F50001A647B681B685A687B681B6822F40062CD
:104F60005A607B689B6B1846FDF716FF0346012BC2
:104F700049D07B689B6B694A5A637B689B6B184678
:104F8000FDF792FE0346002B3DD07B689B6B5B6B6D
:104F90007A68926B1046984735E07B685B6B1B68BC
:104FA0005B689AB27B685A857B685B8D9BB2002BED
:104FB00005D07B681B6C43F004027B681A647B6835
:104FC0001B685A687B681B6822F400625A607B6821
:104FD0005B6B1846FDF7E0FE0346012B14D07B689F
:104FE0005B6B4E4A5A637B685B6B1846FDF75CFE51
:104FF0000346002B08D07B685B6B5B6B7A68526B57
:105000001046984700E000BF7B685B8D9BB2002B89
:105010003ED07B681B685B6903F00403042B12D14C
:105020007B681B681A697B685B6AD2B21A707B68FE
:105030005B6A5A1C7B685A627B685B8D9BB2013B42
:105040009AB27B685A857B681B685B6903F04003F2
:10505000402B12D17B681B681A697B685B6AD2B2ED
:105060001A707B685B6A5A1C7B685A627B685B8D2E
:105070009BB2013B9AB27B685A857B685B8D9BB281
:10508000002B05D07B681B6C43F004027B681A641C
:105090007B681B6C002B03D0786800F0B7F839E010
:1050A000FB7B2A2B09D17B6800221A637B682822AC
:1050B00083F83D207868FFF710F87B6893F83D305F
:1050C000DBB2282B11D17B68154ADA627B6800229B
:1050D0001A637B68202283F83D207B68002283F8D6
:1050E0003E207868FFF70FF814E07B681B6B222BDB
:1050F00002D0FB7B222B0DD17B6800221A637B68D8
:10510000202283F83D207B68002283F83E207868C7
:10511000FEF7E3FF00BF1037BD4680BD3D580008D5
:105120000000FFFF80B584B000AF78607B6893F823
:105130003D30FB737B68DB6ABB60BB68082B02D029
:10514000BB68202B29D1FB7B282B26D17B682E4ADC
:10515000DA627B681B685A687B681B6822F4E0622D
:105160005A607B681B686FF480625A617B681B68B9
:105170001A687B681B6822F480621A607B680022D0
:105180001A637B68202283F83D207B68002283F825
:105190003E207868FEF7B7FF31E0FB7B212B29D159
:1051A0007B68194ADA627B6821221A637B682022B5
:1051B00083F83D207B68002283F83E207B681B68D3
:1051C0005A687B681B6822F4E0625A607B681B683F
:1051D0006FF480625A617B681B681A687B681B6881
:1051E00022F480621A607868FEF7C4F87868FEF7E7
:1051F0006BFF04E07B681B686FF480625A6100BF3C
:105200001037BD4680BD00BF0000FFFF80B584B0F1
:1052100000AF78607B6893F83D30FB737B6893F850
:105220003E30BB73BB7B102B02D0BB7B402B0AD123
:10523000FB7B222B07D17B681B681A687B681B6885
:1052400022F400621A60FB7B03F02803282B07D1AD
:105250007B6800221A637B68282283F83D2015E0D2
:105260007B681B685B6803F40063B3F5006F0AD0CA
:10527000FB7B602B07D07B68202283F83D207B6876
:10528000002283F83E207B6800221A637B681B683B
:105290005B6803F40063B3F5006F62D17B681B6841
:1052A0005A687B681B6822F400625A607B685B6BFB
:1052B00093F82130DBB2012B20D07B685B6B6A4A0C
:1052C0005A637B685B6B1846FDF7EEFC0346002BC8
:1052D00000F089807B681B681A687B681B6822F075
:1052E00001021A607B68202283F83D207B685B6B9B
:1052F0005B6B7A68526B1046984774E07B689B6BD7
:10530000594A5A637B689B6B1846FDF7CDFC0346F0
:10531000002B68D07B681B685B6903F04003402B5F
:105320000BD17B681B681A697B685B6AD2B21A7002
:105330007B685B6A5A1C7B685A627B681B681A68C8
:105340007B681B6822F001021A607B68202283F8C8
:105350003D207B689B6B5B6B7A68926B104698472D
:1053600041E07B6893F83D30DBB2602B25D17B6850
:10537000202283F83D207B6800221A647B681B682A
:105380005B6903F04003402B0BD17B681B681A69F3
:105390007B685B6AD2B21A707B685B6A5A1C7B6856
:1053A0005A627B681B681A687B681B6822F00102DE
:1053B0001A607868FEF7CBFE15E07B681B685B69B6
:1053C00003F04003402B0BD17B681B681A697B6894
:1053D0005B6AD2B21A707B685B6A5A1C7B685A623D
:1053E0007868FEF7ABFE7B681B6CBB60BB6803F0A4
:1053F0000103002B0ED1BB6803F00203002B09D17F
:10540000BB6803F00403002B04D1BB6803F008035E
:10541000002B07D07B681B685A687B681B6822F4E6
:10542000E0625A607B6893F83D30FB737B681B6CCD
:1054300003F00403042B13D1FB7B282B10D17B68D2
:105440000A4ADA627B6800221A637B68202283F8AA
:105450003D207B68002283F83E207868FEF753FEEB
:1054600000BF1037BD4680BD3D5800080000FFFF5B
:1054700080B588B002AFF8607A603B600B467B81F4
:10548000FB68DB6A7B617B69082B06D07B69012B9B
:1054900003D07B6913F5803F08D1FB681B681A684D
:1054A000FB681B6842F480721A600BE0FB681B6BA0
:1054B000122B07D1FB681B681A68FB681B6842F453
:1054C00080721A603B6800937B6800224FF00111E4
:1054D000F86800F05BFA0346002B0DD0FB681B68F0
:1054E0001B6803F48073B3F5807F03D1FB684FF42E
:1054F00000721A64032335E0FB681B69B3F5804F23
:1055000008D17B89DBB21A46FB681B6802F0FE02F9
:105510001A611BE07B89DB11DBB203F00603DBB20F
:1055200063F00F03DAB2FB681B681A613B687A68A4
:105530000E49F86800F0A4FA0346002B01D00123BD
:1055400010E07B89DAB2FB681B681A613B687A68F5
:105550000749F86800F094FA0346002B01D00123B4
:1055600000E0002318461837BD4680BD0800010042
:105570000200010080B588B002AFF8607A603B603D
:105580000B467B81FB68DB6A7B61FB681B681A68E2
:10559000FB681B6842F480621A607B69082B06D0A6
:1055A0007B69012B03D07B6913F5803F08D1FB6831
:1055B0001B681A68FB681B6842F480721A600BE073
:1055C000FB681B6B112B07D1FB681B681A68FB6813
:1055D0001B6842F480721A603B6800937B6800226B
:1055E0004FF00111F86800F0D1F90346002B0DD0FF
:1055F000FB681B681B6803F48073B3F5807F03D1DD
:10560000FB684FF400721A64032379E0FB681B699E
:10561000B3F5804F08D17B89DBB243F00103DAB2E6
:10562000FB681B681A615FE07B89DB11DBB203F06A
:105630000603DBB263F00F03DAB2FB681B681A6182
:105640003B687A683049F86800F01AFA0346002B84
:1056500001D0012354E07B89DAB2FB681B681A6130
:105660003B687A682949F86800F00AFA0346002B7B
:1056700001D0012344E000233B61FB681B685B69A8
:105680003B61FB681B689B693B613B69FB681B686E
:105690001A68FB681B6842F480721A603B680093CA
:1056A0007B6800224FF00111F86800F06FF90346A3
:1056B000002B0DD0FB681B681B6803F48073B3F5E7
:1056C000807F03D1FB684FF400721A64032317E054
:1056D0007B89DB11DBB203F00603DBB263F00E0360
:1056E000DAB2FB681B681A613B687A680749F86898
:1056F00000F0C6F90346002B01D0012300E000238F
:1057000018461837BD4680BD0800010002000100A0
:1057100080B588B002AFF860084611461A460346C5
:105720007B810B463B811346FB80FB681B681A6834
:10573000FB681B6842F480721A607B6A00933B6AC4
:1057400000224FF00111F86800F020F90346002B09
:105750000DD0FB681B681B6803F48073B3F5807F72
:1057600003D1FB684FF400721A6403235FE07B8966
:10577000DBB21A46FB681B6802F0FE021A617B6A04
:105780003A6A2D49F86800F07BF90346002B01D0F6
:1057900001234CE000237B61FB681B685B697B6134
:1057A000FB681B689B697B617B697A6A396AF86868
:1057B00000F006FA0346002B0DD0FB681B6C042B8F
:1057C00007D1FB681B681A68FB681B6842F400720B
:1057D0001A6001232BE0FB88012B05D13B89DAB24B
:1057E000FB681B681A6121E03B891B0A9BB2DAB295
:1057F000FB681B681A617A6A396AF86800F0E0F998
:105800000346002B0DD0FB681B6C042B07D1FB68F3
:105810001B681A68FB681B6842F400721A60012357
:1058200005E03B89DAB2FB681B681A610023184661
:105830001837BD4680BD00BF0200010080B586B0AC
:1058400000AF78600023FB607B685B6A7B617B69EB
:1058500093F83D30FB744B4B1B68DB084A4AA2FBB4
:1058600003231A0A13469B001344DA00D31AFB6081
:10587000FB68002B06D17B691B6C43F020027B691F
:105880001A640AE0FB68013BFB607B691B681B68CC
:1058900003F40073B3F5007FEAD07B695B6B002BE8
:1058A00003D07B695B6B00229A627B699B6B002B48
:1058B00003D07B699B6B00229A627B691B681A6824
:1058C0007B691B6822F480621A607B6900225A851A
:1058D0007B695B6B002B03D07B695B6B00225A6397
:1058E0007B699B6B002B03D07B699B6B00225A6307
:1058F0007B691B681A687B691B6822F001021A60C9
:105900007B6993F83D30DBB2602B0ED17B6920229E
:1059100083F83D207B69002283F83E207B690022CA
:105920001A647869FEF713FC27E0FB7C03F0280378
:10593000282B17D17B691B681A687B691B6842F0AA
:1059400001021A607B691B681A687B691B6842F454
:1059500080621A607B6900221A637B69282283F8BF
:105960003D2007E07B69202283F83D207B690022EF
:1059700083F83E207869FEF7E1FB00BF1837BD468B
:1059800080BD00BF0C00002089B5F81480B584B03C
:1059900000AFF860B9603B601346FB7148E03B68BC
:1059A000B3F1FF3F44D0FDF709F80246BB69D31AB3
:1059B0003A689A4202D33B68002B39D1BB681B0C72
:1059C000DBB2012B0DD1FB681B685B69DA43BB6856
:1059D00013409BB2002B0CBF01230023DBB21A46FD
:1059E0000CE0FB681B689B69DA43BB6813409BB201
:1059F000002B0CBF01230023DBB21A46FB799A422D
:105A000016D1FB6800221A63FB68202283F83D2030
:105A1000FB68002283F83E20FB681B6C43F02002E9
:105A2000FB681A64FB68002283F83C20012323E012
:105A3000BB681B0CDBB2012B0DD1FB681B685B69DB
:105A4000DA43BB6813409BB2002B0CBF0123002339
:105A5000DBB21A460CE0FB681B689B69DA43BB6843
:105A600013409BB2002B0CBF01230023DBB21A466C
:105A7000FB799A4293D0002318461037BD4680BD6B
:105A800080B584B000AFF860B9607A603B6071E0C7
:105A9000FB681B685B6903F48063B3F5806F23D1F7
:105AA000FB681B681A68FB681B6842F400721A6086
:105AB000FB681B686FF480625A61FB6800221A63FE
:105AC000FB68202283F83D20FB68002283F83E20FB
:105AD000FB681B6C43F00402FB681A64FB6800223D
